:020000040800F2
:1000000000500020852800089D260008A52600082D
:10001000AD260008B5260008BD2600080000000037
:10002000000000000000000000000000C5260008DD
:10003000D126000800000000DD260008E92600089F
:10004000CD280008CD280008CD280008CD280008BC
:10005000CD280008CD280008B1130008CD280008DD
:10006000CD280008CD280008CD280008CD2800089C
:10007000CD280008CD280008CD280008CD2800088C
:10008000CD280008CD280008CD280008CD2800087C
:10009000CD280008CD280008CD280008CD2800086C
:1000A000CD280008CD280008CD280008CD2800085C
:1000B000CD280008CD280008CD280008CD2800084C
:1000C000CD280008CD280008CD280008CD2800083C
:1000D000CD280008CD280008CD280008CD2800082C
:1000E000CD280008CD280008CD2800080000000019
:1000F0000000000000000000000000000000000000
:0C01000000000000000000005FF808F1A3
:1001100010B5054C237833B9044B13B10448AFF341
:1001200000800123237010BDF401002000000000B6
:10013000DC71000808B5034B1BB103490348AFF35A
:10014000008008BD00000000F8010020DC710008FC
:10015000034613F8012B002AFBD1181A0138704707
:1001600081F0004102E000BF83F0004330B54FEA68
:1001700041044FEA430594EA050F08BF90EA020FD5
:100180001FBF54EA000C55EA020C7FEA645C7FEA68
:10019000655C00F0E2804FEA5454D4EB5555B8BF8B
:1001A0006D420CDD2C4480EA020281EA030382EAFC
:1001B000000083EA010180EA020281EA0303362D8E
:1001C00088BF30BD11F0004F4FEA01314FF4801C61
:1001D0004CEA113102D0404261EB410113F0004F73
:1001E0004FEA03334CEA133302D0524263EB43032A
:1001F00094EA050F00F0A780A4F10104D5F1200EC8
:100200000DDB02FA0EFC22FA05F2801841F1000122
:1002100003FA0EF2801843FA05F359410EE0A5F1F6
:1002200020050EF1200E012A03FA0EFC28BF4CF027
:10023000020C43FA05F3C01851EBE37101F00045DD
:1002400007D54FF0000EDCF1000C7EEB00006EEBEA
:100250000101B1F5801F1BD3B1F5001F0CD3490874
:100260005FEA30004FEA3C0C04F101044FEA4452CB
:1002700012F5800F80F09A80BCF1004F08BF5FEA52
:10028000500C50F1000041EB045141EA050130BD32
:100290005FEA4C0C404141EB0101013C28BFB1F544
:1002A000801FE9D291F0000F04BF01460020B1FA8F
:1002B00081F308BF2033A3F10B03B3F120020CDA62
:1002C0000C3208DD02F1140CC2F10C0201FA0CF040
:1002D00021FA02F10CE002F11402D8BFC2F1200CA5
:1002E00001FA02F120FA0CFCDCBF41EA0C0190405B
:1002F000E41AA2BF01EB0451294330BD6FEA0404A4
:100300001F3C1CDA0C340EDC04F11404C4F120028E
:1003100020FA04F001FA02F340EA030021FA04F3A0
:1003200045EA030130BDC4F10C04C4F1200220FAF7
:1003300002F001FA04F340EA0300294630BD21FA35
:1003400004F0294630BD94F0000F83F4801306BFFB
:1003500081F480110134013D4EE77FEA645C18BFEF
:100360007FEA655C29D094EA050F08BF90EA020F86
:1003700005D054EA000C04BF1946104630BD91EA7E
:10038000030F1EBF0021002030BD5FEA545C05D181
:100390004000494128BF41F0004130BD14F58004C0
:1003A0003CBF01F5801130BD01F0004545F0FE4134
:1003B00041F470014FF0000030BD7FEA645C1ABF69
:1003C000194610467FEA655C1CBF0B46024650EAA0
:1003D000013406BF52EA033591EA030F41F40021CC
:1003E00030BD00BF90F0000F04BF0021704730B552
:1003F0004FF4806404F132044FF000054FF0000127
:1004000050E700BF90F0000F04BF0021704730B5E7
:100410004FF4806404F1320410F0004548BF4042BC
:100420004FF000013EE700BF42004FEAE2014FEA11
:1004300031014FEA02701FBF12F07F4393F07F4FEC
:1004400081F06051704732F07F4208BF704793F0EF
:100450007F4F04BF41F40021704730B54FF4607402
:1004600001F0004521F000411CE700BF50EA010205
:1004700008BF704730B54FF000050AE050EA0102AE
:1004800008BF704730B511F0004502D5404261EB1E
:1004900041014FF4806404F132045FEA915C3FF45F
:1004A000D8AE4FF003025FEADC0C18BF03325FEAFC
:1004B000DC0C18BF033202EBDC02C2F1200300FAAD
:1004C00003FC20FA02F001FA03FE40EA0E0021FAD2
:1004D00002F11444BDE600BF70B54FF0FF0C4CF4C0
:1004E000E06C1CEA11541DBF1CEA135594EA0C0F72
:1004F00095EA0C0F00F0DEF82C4481EA030621EAAD
:100500004C5123EA4C5350EA013518BF52EA0335E7
:1005100041F4801143F4801338D0A0FB02CE4FF099
:100520000005E1FB02E506F00042E0FB03E54FF0C9
:100530000006E1FB03569CF0000F18BF4EF0010EC1
:10054000A4F1FF04B6F5007F64F5407404D25FEABD
:100550004E0E6D4146EB060642EAC62141EA555170
:100560004FEAC52040EA5E504FEACE2EB4F1FD0CB2
:1005700088BFBCF5E06F1ED8BEF1004F08BF5FEA30
:10058000500E50F1000041EB045170BD06F00046E2
:1005900046EA010140EA020081EA0301B4EB5C048F
:1005A000C2BFD4EB0C0541EA045170BD41F4801187
:1005B0004FF0000E013C00F3AB8014F1360FDEBFAC
:1005C000002001F0004170BDC4F10004203C35DA88
:1005D0000C341BDC04F11404C4F1200500FA05F30B
:1005E00020FA04F001FA05F240EA020001F00042AC
:1005F00021F0004110EBD37021FA04F642EB060122
:100600005EEA430E08BF20EAD37070BDC4F10C044B
:10061000C4F1200500FA04F320FA05F001FA04F20F
:1006200040EA020001F0004110EBD37041F10001FB
:100630005EEA430E08BF20EAD37070BDC4F1200506
:1006400000FA05F24EEA020E20FA04F301FA05F26E
:1006500043EA020321FA04F001F0004121FA04F216
:1006600020EA020000EBD3705EEA430E08BF20EAE6
:10067000D37070BD94F0000F0FD101F00046400020
:1006800041EB010111F4801F08BF013CF7D041EAA2
:10069000060195F0000F18BF704703F000465200A6
:1006A00043EB030313F4801F08BF013DF7D043EA77
:1006B0000603704794EA0C0F0CEA135518BF95EA2D
:1006C0000C0F0CD050EA410618BF52EA4306D1D1B4
:1006D00081EA030101F000414FF0000070BD50EAD3
:1006E000410606BF1046194652EA430619D094EA5D
:1006F0000C0F02D150EA013613D195EA0C0F05D147
:1007000052EA03361CBF104619460AD181EA03019A
:1007100001F0004141F0FE4141F470014FF0000052
:1007200070BD41F0FE4141F4780170BD70B54FF0ED
:10073000FF0C4CF4E06C1CEA11541DBF1CEA13556D
:1007400094EA0C0F95EA0C0F00F0A7F8A4EB05044F
:1007500081EA030E52EA03354FEA013100F0888046
:100760004FEA03334FF0805545EA131343EA12630F
:100770004FEA022245EA111545EA10654FEA0026C4
:100780000EF000419D4208BF964244F1FD0404F57D
:10079000407402D25B084FEA3202B61A65EB0305D9
:1007A0005B084FEA32024FF480104FF4002CB6EB96
:1007B000020E75EB030E22BFB61A754640EA0C0016
:1007C0005B084FEA3202B6EB020E75EB030E22BF56
:1007D000B61A754640EA5C005B084FEA3202B6EB97
:1007E000020E75EB030E22BFB61A754640EA9C0056
:1007F0005B084FEA3202B6EB020E75EB030E22BF26
:10080000B61A754640EADC0055EA060E18D04FEAE3
:10081000051545EA16754FEA06164FEAC30343EA83
:1008200052734FEAC2025FEA1C1CC0D111F4801F50
:100830000BD141EA00014FF000004FF0004CB6E749
:1008400011F4801F04BF01430020B4F1FD0C88BFE8
:10085000BCF5E06F3FF6AFAEB5EB030C04BFB6EBF3
:10086000020C5FEA500C50F1000041EB045170BDE6
:100870000EF0004E4EEA113114EB5C04C2BFD4EB13
:100880000C0541EA045170BD41F480114FF0000E97
:10089000013C90E645EA060E8DE60CEA135594EA13
:1008A0000C0F08BF95EA0C0F3FF43BAF94EA0C0F16
:1008B0000AD150EA01347FF434AF95EA0C0F7FF48B
:1008C00025AF104619462CE795EA0C0F06D152EADF
:1008D00003353FF4FDAE1046194622E750EA4106C3
:1008E00018BF52EA43067FF4C5AE50EA41047FF4D4
:1008F0000DAF52EA43057FF4EBAE12E74FF0FF3C39
:1009000006E000BF4FF0010C02E000BF4FF0010C09
:100910004DF804CD4FEA410C7FEA6C5C4FEA430C82
:1009200018BF7FEA6C5C1BD001B050EA410C0CBFD1
:1009300052EA430C91EA030F02BF90EA020F002033
:10094000704710F1000F91EA030F58BF994208BF9A
:1009500090422CBFD8176FEAE37040F00100704757
:100960004FEA410C7FEA6C5C02D150EA013C07D1AE
:100970004FEA430C7FEA6C5CD6D152EA033CD3D0F9
:100980005DF8040B704700BF8446104662468C46F3
:100990001946634600E000BF01B5FFF7B7FF002826
:1009A00048BF10F1000F01BD4DF808EDFFF7F4FF4F
:1009B0000CBF012000205DF808FB00BF4DF808EDDA
:1009C000FFF7EAFF34BF012000205DF808FB00BFFD
:1009D0004DF808EDFFF7E0FF94BF012000205DF81F
:1009E00008FB00BF4DF808EDFFF7CEFF94BF0120D4
:1009F00000205DF808FB00BF4DF808EDFFF7C4FFCD
:100A000034BF012000205DF808FB00BF4FEA410C15
:100A10007FEA6C5C02D150EA013C0AD14FEA430CF8
:100A20007FEA6C5C02D152EA033C02D14FF0000035
:100A300070474FF0010070474FEA410212F5001273
:100A400015D211D56FF47873B3EB625212D94FEA15
:100A5000C12343F0004343EA505311F0004F23FAFF
:100A600002F018BF404270474FF00000704750EA54
:100A7000013005D111F0004008BF6FF00040704711
:100A80004FF00000704700BF80F0004002E000BF60
:100A900081F0004142001FBF5FEA410392EA030F69
:100AA0007FEA226C7FEA236C6AD04FEA1262D2EBB3
:100AB0001363C1BFD218414048404140B8BF5B42B8
:100AC000192B88BF704710F0004F40F4000020F051
:100AD0007F4018BF404211F0004F41F4000121F067
:100AE0007F4118BF494292EA030F3FD0A2F10102B1
:100AF00041FA03FC10EB0C00C3F1200301FA03F1EF
:100B000000F0004302D5494260EB4000B0F5000F11
:100B100013D3B0F1807F06D340084FEA310102F1D0
:100B20000102FE2A51D2B1F1004F40EBC25008BF82
:100B300020F0010040EA03007047490040EB00004C
:100B4000013A28BFB0F5000FEDD2B0FA80FCACF14D
:100B5000080CB2EB0C0200FA0CF0AABF00EBC2507A
:100B600052421843BCBFD0401843704792F0000F68
:100B700081F4000106BF80F400000132013BB5E7BB
:100B80004FEA41037FEA226C18BF7FEA236C21D031
:100B900092EA030F04D092F0000F08BF0846704796
:100BA00090EA010F1CBF0020704712F07F4F04D164
:100BB000400028BF40F00040704712F100723CBF77
:100BC00000F50000704700F0004343F0FE4040F4A1
:100BD000000070477FEA226216BF08467FEA23635F
:100BE0000146420206BF5FEA412390EA010F40F44A
:100BF000800070474FF0000304E000BF10F0004396
:100C000048BF40425FEA000C08BF704743F096437C
:100C100001464FF000001CE050EA010208BF704797
:100C20004FF000030AE000BF50EA010208BF70471E
:100C300011F0004302D5404261EB41015FEA010C33
:100C400002BF84460146002043F0B64308BFA3F12B
:100C50008053A3F50003BCFA8CF2083AA3EBC2530D
:100C600010DB01FA02FC634400FA02FCC2F120022C
:100C7000BCF1004F20FA02F243EB020008BF20F063
:100C80000100704702F1200201FA02FCC2F12002C9
:100C900050EA4C0021FA02F243EB020008BF20EABE
:100CA000DC7070474FF0FF0C1CEAD0521EBF1CEAEC
:100CB000D15392EA0C0F93EA0C0F6FD01A4480EADA
:100CC000010C400218BF5FEA41211ED04FF00063C3
:100CD00043EA501043EA5111A0FB01310CF00040EF
:100CE000B1F5000F3EBF490041EAD3715B0040EA15
:100CF000010062F17F02FD2A1DD8B3F1004F40EBE5
:100D0000C25008BF20F00100704790F0000F0CF0B7
:100D1000004C08BF49024CEA502040EA51207F3A7B
:100D2000C2BFD2F1FF0340EAC250704740F4000056
:100D30004FF00003013A5DDC12F1190FDCBF00F047
:100D400000407047C2F10002410021FA02F1C2F1F5
:100D5000200200FA02FC5FEA310040F1000053EA91
:100D60004C0308BF20EADC70704792F0000F00F0DF
:100D7000004C02BF400010F4000F013AF9D040EAE5
:100D80000C0093F0000F01F0004C02BF490011F479
:100D9000000F013BF9D041EA0C018FE70CEAD15377
:100DA00092EA0C0F18BF93EA0C0F0AD030F0004CF7
:100DB00018BF31F0004CD8D180EA010000F00040AB
:100DC000704790F0000F17BF90F0004F084691F069
:100DD000000F91F0004F14D092EA0C0F01D14202A3
:100DE0000FD193EA0C0F03D14B0218BF084608D16C
:100DF00080EA010000F0004040F0FE4040F40000B6
:100E0000704740F0FE4040F4400070474FF0FF0C48
:100E10001CEAD0521EBF1CEAD15392EA0C0F93EA8F
:100E20000C0F69D0A2EB030280EA010C49024FEAE1
:100E3000402037D04FF0805343EA111143EA10139A
:100E40000CF000408B4238BF5B0042F17D024FF452
:100E5000000C8B4224BF5B1A40EA0C00B3EB510F2D
:100E600024BFA3EB510340EA5C00B3EB910F24BF16
:100E7000A3EB910340EA9C00B3EBD10F24BFA3EB9B
:100E8000D10340EADC001B0118BF5FEA1C1CE0D163
:100E9000FD2A3FF650AF8B4240EBC25008BF20F016
:100EA000010070470CF0004C4CEA50207F32C2BF6A
:100EB000D2F1FF0340EAC250704740F400004FF007
:100EC0000003013A37E792F0000F00F0004C02BF38
:100ED000400010F4000F013AF9D040EA0C0093F002
:100EE000000F01F0004C02BF490011F4000F013B5C
:100EF000F9D041EA0C0195E70CEAD15392EA0C0FC4
:100F000008D142027FF47DAF93EA0C0F7FF470AFFB
:100F1000084676E793EA0C0F04D14B023FF44CAF3E
:100F200008466EE730F0004C18BF31F0004CCAD1D3
:100F300030F000427FF45CAF31F000437FF43CAF0F
:100F40005FE700BF4FF0FF3C06E000BF4FF0010C31
:100F500002E000BF4FF0010C4DF804CD4FEA400213
:100F60004FEA41037FEA226C18BF7FEA236C11D05D
:100F700001B052EA530C18BF90EA010F58BFB2EB10
:100F8000030088BFC81738BF6FEAE17018BF40F090
:100F9000010070477FEA226C02D15FEA402C05D144
:100FA0007FEA236CE4D15FEA412CE1D05DF8040BC9
:100FB000704700BF844608466146FFE70FB5FFF75C
:100FC000C9FF002848BF10F1000F0FBD4DF808ED14
:100FD000FFF7F4FF0CBF012000205DF808FB00BF05
:100FE0004DF808EDFFF7EAFF34BF012000205DF85F
:100FF00008FB00BF4DF808EDFFF7E0FF94BF0120AC
:1010000000205DF808FB00BF4DF808EDFFF7D2FFA8
:1010100094BF012000205DF808FB00BF4DF808EDEB
:10102000FFF7C8FF34BF012000205DF808FB00BFB8
:101030004FEA4002B2F1FE4F0FD34FF09E03B3EBE5
:1010400012620DD94FEA002343F0004310F0004F25
:1010500023FA02F018BF404270474FF0000070477B
:1010600012F1610F01D1420205D110F0004008BF1A
:101070006FF0004070474FF00000704780B584B0BB
:1010800000AF03460A46FB711346BB80BB881B0AB0
:101090009BB2DBB23B73BB88DBB27B7307F10C0204
:1010A000F9790223802000F073FF00BF1037BD469E
:1010B00080BD80B584B000AF0346FB710023BB81C7
:1010C00007F10C02F9790223802000F0A6FF034605
:1010D000002B02D04DF6AD6308E03B7B1BB21B0238
:1010E0001AB27B7B1BB213431BB29BB2184610375C
:1010F000BD4680BD80B584B000AF7860802000F030
:101100002BFF0346002B1DD10A2001F043FC4FF4B6
:1011100000410020FFF7B2FF0A2001F03BFC9B23B7
:10112000FB81FB8919460520FFF7A8FF052001F088
:1011300031FC44F64F010020FFF7A0FF0A2001F028
:1011400029FC00E000BF1037BD4680BD80B582B0ED
:1011500000AF0220FFF7ADFF0346FB80FB884DF692
:10116000AD62934204D0FB884FF6FF72934202D1E6
:101170004FF0000310E0FB881846FFF73FFD0346E1
:1011800007491846FFF78EFD034606491846FFF744
:1011900081FC03463B603B6818460837BD4680BD6E
:1011A0000AD7A33A8FC2753C80B582B000AF042045
:1011B000FFF77FFF0346FB80B7F906300C4A9342E6
:1011C00004D0B7F90630B3F1FF3F02D14FF000036E
:1011D0000AE0B7F906301846FFF710FD0346054947
:1011E0001846FFF75FFD034618460837BD4680BD29
:1011F000ADDEFFFF6F12833A80B582B000AF0320EF
:10120000FFF757FF0346FB80FB884DF6AD62934224
:1012100004D0FB884FF6FF72934202D14FF00003D7
:101220000EE0FB881846FFF7E5FC03460649184622
:10123000FFF738FD034605491846FFF733FD03461F
:1012400018460837BD4680BD6F12833A0000C8417A
:1012500080B584B000AF78600C497868FFF722FD54
:101260000346FB600A49F868FFF7D0FD03461846BD
:10127000FFF7DEFE03467B817B8919460720FFF7D7
:10128000FDFE00BF1037BD4680BD00BF022B073DED
:10129000ACC5273680B582B000AF48F20103FB80B1
:1012A000FB8819460620FFF7E9FE00BF0837BD4658
:1012B00080BD80B582B000AF0620FFF7FAFE03467E
:1012C000FB80FB881B11DBB203F00103DBB2184685
:1012D0000837BD4680BD80B582B000AF0620FFF75D
:1012E000E8FE0346FB80FB8800BF0837BD4680BD93
:1012F00080B586B000AF07F1080300221A605A607B
:101300009A60DA60274B9B69264A43F00403936195
:10131000244B9B6903F004037B607B68214B9B6932
:10132000204A43F0010393611E4B9B6903F00103C4
:101330003B603B680123BB601B4BFB6001233B61AF
:1013400007F108031946194801F056FC0223BB6057
:101350000023FB6001233B6107F108031946134892
:1013600001F04AFC0423BB600023FB6001233B61C6
:1013700007F1080319460D4801F03EFC0022022146
:10138000062001F002FC062001F01BFC00220221D5
:10139000062001F0FAFB062001F013FC00BF18370D
:1013A000BD4680BD00100240000021100008014031
:1013B00080B582B000AF1B4B5B6903F00103002BCB
:1013C0002DD0184B01225A6101F0DAFA7860164BE1
:1013D0001B687A68D31A0E2B20D9134A7B681360D6
:1013E00000233B6003E000BF3B6801333B603B6888
:1013F000B3F5FA6FF7DB02210C4801F081FD0346DB
:10140000012B05D10A4B1B68013B094A136006E01A
:10141000074B1B680133064A136000E000BF083722
:10142000BD4680BD000401401802002000080140B4
:101430001002002080B483B000AF72B600BF0B4B27
:101440001B687B6062B600BF7B689AB2084B1B6862
:101450009BB2D31A9BB27B80054A7B681360B7F9B5
:10146000023018460C37BD4680BC70471002002081
:101470001402002080B582B000AF0421124801F0B0
:101480003FFD0346FB71FB79002B15D10F4B1B78F9
:10149000012B11D101F074FA02460D4B1B68D31ACF
:1014A000322B09D901F06CFA0346094A1360074A46
:1014B000FB791370012303E0044AFB7913700023C6
:1014C00018460837BD4680BD0008014000000020D6
:1014D0001C02002080B500AF0C21024802F042FC43
:1014E00000BF80BD2002002080B500AF0C21024863
:1014F00002F0DAFC00BF80BD2002002080B588B079
:1015000000AF07F1100300221A605A609A60DA6097
:101510001E4B9B691D4A43F0200393611B4B9B6943
:1015200003F02003FB60FB68184B9B69174A43F0EC
:1015300004039361154B9B6903F00403BB60BB6814
:10154000124B9B69114A43F0080393610F4B9B694F
:1015500003F008037B607B68002240F203410C48E3
:1015600001F0E5FC40F203433B6101237B61002372
:10157000BB610223FB6107F110031946044801F027
:101580003BFB00BF2037BD4680BD00BF00100240BE
:10159000000C014080B592B004AF01F099F900F061
:1015A0001DFBFFF7ABFF00F095FD00F0AFFA00F078
:1015B000E3FE00F075FBFFF79BFEFFF78BFF4FF498
:1015C000FA7001F0E7F9FFF78FFF002001F022F831
:1015D000974B002202924FF6FF7201925A680092D6
:1015E0001B68944A32210A2000F057FF924B0022D8
:1015F00002924FF4FC6201925A6800921B688F4A73
:101600004B21142000F049FF40F2DC5001F0C2F9F8
:10161000002000F0FFFF884B0022029240F2FF7290
:1016200001925A6800921B68854A0A21052000F041
:1016300034FF802000F090FC0346002B57D17E4BF6
:10164000002202924FF4FC6201925A6800921B68D9
:101650007C4A1921052000F020FF4FF4FA7001F0B8
:1016600099F90020FFF746FD774B1B681846FFF7F6
:10167000EFFDFFF70FFE704B002202924FF6E07273
:1016800001925A6800921B68704A2821052000F0D8
:1016900004FF6D4B1B681846FEF7C6FE02460B465C
:1016A00038466B4903F012FD634B39460022029223
:1016B0004FF6E07201925A6800921B680A46372181
:1016C000052000F0EAFE4FF4FA7001F063F9002003
:1016D00000F0A0FF4FF00003FB624FF00003BB627D
:1016E0004FF000037B624FF000037B630FE0524B2F
:1016F000002202924FF4784201925A6800921B68CD
:10170000544A1921052000F0C8FE00BFFDE7FFF78D
:1017100091FE03467B84B7F92230002B3FD0B7F906
:101720002230002BB8BF5B429BB2042B02D94A4B3C
:101730003B6301E0494B3B63B7F922301846FFF7A2
:101740005DFA0346396B1846FFF7ACFA03461A46B2
:101750003D4B1B6819461046FFF79CF903461A4695
:10176000394B1A60384B1B683C491846FFF738FC68
:101770000346002B02D0344B384A1A60324B1B68A8
:1017800037491846FFF74AFC0346002B02D02E4B80
:10179000334A1A602C4B1B681846FFF759FD314B32
:1017A0001B78002B07D1FFF784FD0346002B02D0E6
:1017B0002C4B01221A70FFF75DFE0346002B0BD065
:1017C000FFF789FD274B00221A70FFF78DFE0020DE
:1017D00000F020FFFFF75EFDFFF7B8FCF862FFF7AF
:1017E000E3FCB862FFF708FD78621B49B86AFFF7AF
:1017F00059FA03461C491846FFF708FB03461946E9
:10180000786BFFF747F903467B63164B1B78002B79
:1018100004D0B96AF86A00F0C5F805E07B6B7A6A13
:10182000B96AF86A00F022F8012001F0B3F86EE717
:101830000C000020F8710008040000200872000865
:1018400010720008207200081C0000203C72000882
:101850004C7200082C720008CDCCCC3D0AD7233C3A
:10186000666616406802002000006145B0B592B07F
:1018700004AFF860B9607A603B60F868FEF7D4FDA9
:1018800002460B4607F110003E4903F01FFC3E4B99
:1018900007F11001002202924FF4784201925A6837
:1018A00000921B680A460A210F2000F0F6FDB86876
:1018B000FEF7BAFD02460B4607F11000334903F06C
:1018C00005FC314B07F11001002202921F22019208
:1018D0005A6800921B680A4628210F2000F0DDFD9F
:1018E0002B4B002202924FF6FF7201925A6800922F
:1018F0001B68284A48210A2000F0CFFD264B1B68B0
:101900001846FEF791FD02460B4607F110002349E9
:1019100003F0DCFB1E4B07F11001002202924FF690
:10192000FF7201925A6800921B680A4648214E20B5
:1019300000F0B3FD7868FEF777FD04460D46386881
:10194000FEF772FD02460B4607F11000CDE90023B9
:1019500022462B46124903F0B9FB0D4B07F110014B
:10196000002202924FF4FC6201925A6800921B68B6
:101970000A4664210A2000F090FD00BF3837BD46BA
:10198000B0BD00BF5C720008140000206472000843
:101990000C0000206C7200081C000020747200080B
:1019A0007C72000880B592B004AF7860396000F0B6
:1019B000E7FF78634A4B1B687A6BD31AB3F5FA7F5B
:1019C00040F28980464A7B6B1360464B1B78002BA4
:1019D0000CBF01230023DBB21A46424B1A70414B65
:1019E0001B78002B72D0FFF775FD4FF6E0437B8626
:1019F0007B8E184600F00EFE3B4B7A8E02924FF41F
:101A0000784201925A6800921B68384A0F211920C7
:101A100000F043FD7868FEF707FD02460B4607F12C
:101A20000800334903F052FB324B07F108017A8E6C
:101A30000292002201925A6800921B680A463221E3
:101A40000F2000F02AFD3868FEF7EEFC02460B4638
:101A500007F10800284903F039FB264B07F108017C
:101A60007A8E0292002201925A6800921B680A46FE
:101A700046210F2000F011FD204B1B681846FEF791
:101A8000D3FC02460B4607F108001D4903F01EFB7C
:101A9000184B07F108017A8E02921F2201925A68B0
:101AA00000921B680A465F21142000F0F6FC154BDB
:101AB0007A8E02924FF6E07201925A6800921B6889
:101AC000114A73210A2000F0E8FC04E0FFF70CFD46
:101AD000002000F09FFD00BF3837BD4680BD00BF2D
:101AE0006C02002070020020140000208C7200089C
:101AF000947200080C000020A07200081C00002056
:101B00004C72000804000020AC72000880B58EB052
:101B100000AF07F11C0300221A605A609A60DA6075
:101B20001A615A619A6107F10C0300221A605A6027
:101B30009A60DA60264BDB69254A43F00103D361E2
:101B4000234BDB6903F00103BB60BB68204B9B693F
:101B50001F4A43F0040393611D4B9B6903F0040388
:101B60007B607B680823FB6002233B610223BB612F
:101B700007F10C031946174801F03EF8164B4FF0D9
:101B800080421A60144B47225A60134B00229A601D
:101B9000114B4FF4C872DA600F4B00221A610E48E5
:101BA00002F088F86023FB61C8233B6200237B625C
:101BB0000023FB6207F11C030C221946064802F0C1
:101BC000D7F9054802F02CF800BF3837BD4680BD74
:101BD00000100240000801402002002080B590B0B3
:101BE00000AF07F1180328220021184603F0D3FAAA
:101BF0003B1D00221A605A609A60DA601A61012364
:101C0000BB614FF48033FB6100233B620123BB6265
:101C100002237B634FF48033BB634FF4E013FB6319
:101C200007F11803184601F09BF90346002B01D079
:101C300000F019F80F237B600223BB600023FB60D8
:101C40004FF480633B6100237B613B1D02211846FA
:101C500001F008FC0346002B01D000F004F800BF9F
:101C60004037BD4680BD80B400AF72B600BF00BF34
:101C7000FDE780B485B000AF78607A681346DB007A
:101C800013445B00FB6000BFFB685A1EFA60002B28
:101C9000FAD100BF00BF1437BD4680BC70470000BA
:101CA00080B586B000AF07F1080300221A605A60C1
:101CB0009A60DA601B4B9B691A4A43F008039361F0
:101CC000184B9B6903F008037B607B684FF48073BB
:101CD000BB601123FB6000233B6103237B6107F1A1
:101CE00008031946104800F087FF4FF40073BB60EB
:101CF00007F1080319460C4800F07EFF01224FF45B
:101D00008071094801F013F901224FF4007106486F
:101D100001F00DF96420FFF7ACFF00BF1837BD4696
:101D200080BD00BF00100240000C014080B500AF34
:101D300001224FF40071114801F0F9F80520FFF776
:101D400098FF01224FF480710C4801F0F0F8052053
:101D5000FFF78FFF00224FF40071084801F0E7F809
:101D60000520FFF786FF00224FF48071034801F041
:101D7000DEF80520FFF77DFF00BF80BD000C0140AD
:101D800080B500AF00224FF400710D4801F0CFF88C
:101D90000520FFF76EFF01224FF48071084801F023
:101DA000C6F80520FFF765FF01224FF400710448D3
:101DB00001F0BDF80520FFF75CFF00BF80BD00BF4C
:101DC000000C014080B584B000AF0346FB710023D6
:101DD000FB602BE097F90730002B06DA01224FF465
:101DE0000071274801F0A3F805E000224FF40071CC
:101DF000234801F09CF80520FFF73BFF01224FF438
:101E000080711F4801F093F80520FFF732FF002290
:101E10004FF480711A4801F08AF80520FFF729FF76
:101E2000FB795B00FB71FB680133FB60FB68072BF0
:101E3000D0DD01224FF40071114801F078F805203F
:101E4000FFF717FF01224FF480710D4801F06FF882
:101E50000520FFF70EFF4FF40071094801F050F81C
:101E60000346FB7200224FF48071054801F05FF8D1
:101E70000520FFF7FEFEFB7A18461037BD4680BDF1
:101E8000000C014080B584B000AF0346FB71002315
:101E9000FB7301224FF400712E4801F048F8002333
:101EA000BB6023E00520FFF7E4FE01224FF48071C0
:101EB000284801F03CF80520FFF7DBFEFB7B5B00C8
:101EC000FB734FF40071234801F01AF80346002B0E
:101ED00003D0FB7B43F00103FB7300224FF48071BE
:101EE0001C4801F024F8BB680133BB60BB68072BBA
:101EF000D8DDFB79002B06D000224FF40071154885
:101F000001F015F805E001224FF40071114801F0CD
:101F10000EF80520FFF7ADFE01224FF480710D4849
:101F200001F005F80520FFF7A4FE00224FF48071B0
:101F3000084800F0FCFF0520FFF79BFE01224FF44C
:101F40000071044800F0F3FFFB7B18461037BD46D4
:101F500080BD00BF000C014080B584B000AF0346D7
:101F6000FB71FFF7E3FEFB7923F00103DBB21846B8
:101F7000FFF728FF0346FB73FFF702FFFB7B002BF5
:101F800014BF01230023DBB218461037BD4680BDC5
:101F900080B584B000AF3A601A460346FB710B4629
:101FA000BB711346BB80FFF7C1FEFB7923F0010331
:101FB000DBB21846FFF706FF0346002B03D0FFF7FE
:101FC000DFFE012325E0BB791846FFF7FBFE034641
:101FD000002B03D0FFF7D4FE01231AE00023FB817E
:101FE00010E0FB893A6813441B781846FFF7EAFEB5
:101FF0000346002B03D0FFF7C3FE012309E0FB8952
:102000000133FB81FA89BB889A42EAD3FFF7B8FE15
:10201000002318461037BD4680BD90B585B000AF8F
:102020003A601A460346FB710B46BB711346BB80F0
:10203000FFF77CFEFB7923F00103DBB21846FFF7C4
:10204000C1FE0346002B03D0FFF79AFE01233DE0BB
:10205000BB791846FFF7B6FE0346002B03D0FFF707
:102060008FFE012332E0FFF761FEFB7943F00103AD
:10207000DBB21846FFF7A6FE0346002B03D0FFF79E
:102080007FFE012322E00023FB8118E0FA89BB8850
:10209000013B9A4208D1FB893A68D4180020FFF727
:1020A000F1FE0346237007E0FB893A68D41801204B
:1020B000FFF7E8FE03462370FB890133FB81FA89B1
:1020C000BB889A42E2D3FFF75BFE00231846143721
:1020D000BD4690BD80B500AF174B184A1A60164B2D
:1020E0004FF482725A60144B00229A60124B002205
:1020F000DA60114B00221A610F4B00225A610E4B1D
:102100004FF400729A610C4B2822DA610A4B0022CC
:102110001A62094B00225A62074B00229A62064B50
:102120000A22DA62044801F0F9FA0346002B01D0D2
:10213000FFF799FD00BF80BD740200200030014010
:1021400080B588B000AF786007F1100300221A60F4
:102150005A609A60DA607B681B68154A934223D103
:10216000144B9B69134A43F480539361114B9B6951
:1021700003F48053FB60FB680E4B9B690D4A43F0F0
:10218000040393610B4B9B6903F00403BB60BB68C2
:10219000A0233B6102237B610323FB6107F1100352
:1021A0001946054800F028FD00BF2037BD4680BD18
:1021B00000300140001002400008014080B500AF2F
:1021C00000224FF48061024800F0B1FE00BF80BDE4
:1021D000000C014080B500AF01224FF4806102483D
:1021E00000F0A5FE00BF80BD000C014080B500AF2F
:1021F00000220121064800F09AFE052000F0CAFBEB
:1022000001220121024800F092FE00BF80BD00BF04
:10221000000C014080B582B000AF0346FB71002284
:102220000221074800F083FEF91D4FF0FF33012221
:10223000044801F0F7FA00BF0837BD4680BD00BF73
:10224000000C01407402002080B582B000AF7860BD
:10225000396001220221074800F069FE3B689AB20A
:102260004FF0FF337968044801F0DCFA00BF08370B
:10227000BD4680BD000C01407402002080B584B0D2
:1022800000AF78607B685A1C7A601B78FB7334E07F
:102290007B685A1C7A601B78FB72FB7A1846FFF742
:1022A000B9FF7B685A1C7A601B78BB72BB7A9BB201
:1022B00003F08003BB81BB7A03F07F03BB72BB7A60
:1022C000002B08D0BB7A19467868FFF7BDFFBB7AB0
:1022D0007A6813447B60BB89002B0ED07B685A1C44
:1022E0007A601B78BB81BB89FF2B02D14FF4FA7354
:1022F000BB81BB89184600F04DFBFB7B5A1EFA736D
:10230000002BC5D100BF00BF1037BD4680BD90B5C2
:1023100085B000AF0446084611461A462346FB71B5
:102320000346BB710B467B7113463B712A20FFF7B6
:1023300071FF00233B73FB797B730023BB737B79B5
:10234000FB7307F10C0304211846FFF77DFF2B20D8
:10235000FFF760FFBB797B733B79FB7307F10C03DD
:1023600004211846FFF770FF2C20FFF753FF00BF32
:102370001437BD4690BD000080B500AFFFF71EFFCB
:10238000FFF734FF0648FFF779FF0648FFF776FFAF
:102390000548FFF773FFFFF71DFF00BF80BD00BFBB
:1023A000D09A00080C9B00081C9B000882B090B5D6
:1023B00089B000AF7B630346FB800B46BB801346AE
:1023C000FB70FB88D8B2BB88D9B2FB88DAB297F829
:1023D00034301344DBB2013BDCB2BB88DAB297F88D
:1023E00035301344DBB2013BDBB22246FFF78FFFEF
:1023F0000023FB6143E0BA6BFB78203B97F8351074
:1024000001FB03F31946FB690B445B0013441B8873
:102410007B610023BB6129E07A69BB6902FA03F39F
:1024200003F40043002B0ED0BB8F1B0A9BB2DBB220
:102430003B74BB8FDBB27B7407F11003022118469B
:10244000FFF702FF0FE0B7F840301B0A9BB2DBB288
:102450003B73B7F84030DBB27B7307F10C0302210A
:102460001846FFF7F1FEBB690133BB6197F83430C2
:102470001A46BB699342CFD3FB690133FB6197F8DE
:1024800035301A46FB699342B5D300BF00BF2437ED
:10249000BD46BDE8904002B0704782B080B586B0BE
:1024A00004AF3A607B610346FB800B46BB80FFF7BD
:1024B00085FE2DE0FB883A7D13449F2B13DD00231E
:1024C000FB807B7D1A46BB881344BB80BB887A7D2A
:1024D00013447F2B21DC3B681B78202B03D13B6806
:1024E00001333B6014E03B681A78B988F8883B8C6C
:1024F0000293BB8B0193BB6900937B69FFF756FF87
:102500003B7D1A46FB881344FB803B6801333B60EC
:102510003B681B78002BCDD100E000BFFFF75AFECF
:1025200000BF0837BD46BDE8804002B070470000DC
:1025300090B585B000AF0446084611461A462346BA
:10254000FB800346BB800B467B8013463B80FB88A9
:102550009F2B57D8BB887F2B54D8FA887B8813448D
:10256000A02B03DDFB88C3F1A0037B80BA883B88E6
:102570001344802B03DDBB88C3F180033B80FFF74E
:102580001DFEFB88D8B2BB88D9B2FB88DAB27B8843
:10259000DBB21344DBB2013BDCB2BB88DAB23B886E
:1025A000DBB21344DBB2013BDBB22246FFF7AFFEE6
:1025B0003B8C1B0A9BB2DBB23B733B8CDBB27B7365
:1025C00001220221114800F0B2FC3B88BB8013E0DD
:1025D0007B88FB800AE007F10C014FF0FF330222F9
:1025E0000B4801F01FF9FB88013BFB80FB88002BA7
:1025F000F1D1BB88013BBB80BB88002BE8D1FFF742
:10260000E9FD00E000BF1437BD4690BD000C01405D
:102610007402002080B584B002AF0346FB80FB88C3
:1026200000938023A02200210020FFF781FF00BF3C
:102630000837BD4680BD000080B485B000AF154BA3
:102640009B69144A43F001039361124B9B6903F0A9
:102650000103BB60BB680F4BDB690E4A43F080533C
:10266000D3610C4BDB6903F080537B607B680A4BC2
:102670005B68FB60FB6823F0E063FB60FB6843F092
:102680000073FB60044AFB68536000BF1437BD460B
:1026900080BC7047001002400000014080B400AFD1
:1026A00000BFFDE780B400AF00BFFDE780B400AF1E
:1026B00000BFFDE780B400AF00BFFDE780B400AF0E
:1026C00000BFFDE780B400AF00BFBD4680BC7047CF
:1026D00080B400AF00BFBD4680BC704780B400AF7F
:1026E00000BFBD4680BC704780B500AF00F036F932
:1026F00000BF80BD80B400AF01231846BD4680BC3A
:10270000704780B582B000AF7860396002F0A6FDF6
:10271000034616221A604FF0FF3318460837BD46AD
:1027200080BD80B582B000AF78604FF0FF3178682F
:10273000FFF7E7FF00BFFDE780B586B000AFF860A8
:10274000B9607A6000237B610AE0AFF30080014644
:10275000BB685A1CBA60CAB21A707B6901337B61CC
:102760007A697B689A42F0DB7B6818461837BD4669
:1027700080BD80B586B000AFF860B9607A60002394
:102780007B6109E0BB685A1CBA601B781846AFF33E
:1027900000807B6901337B617A697B689A42F1DB57
:1027A0007B6818461837BD4680BD80B483B000AF43
:1027B00078604FF0FF3318460C37BD4680BC704739
:1027C00080B483B000AF786039603B684FF400524A
:1027D0005A60002318460C37BD4680BC704780B451
:1027E00083B000AF7860012318460C37BD4680BC2B
:1027F000704780B485B000AFF860B9607A6000239C
:1028000018461437BD4680BC7047000080B586B0BE
:1028100000AF7860144A154BD31A7B617B693B612A
:10282000134B1B68002B02D1114B124A1A60104B3C
:102830001A687B6813443A699A4207D202F00EFD87
:1028400003460C221A604FF0FF3309E0084B1B6867
:10285000FB60074B1A687B681344054A1360FB68EA
:1028600018461837BD4680BD005000200004000007
:10287000CC0200202004002080B400AF00BFBD4681
:1028800080BC7047FFF7F8FF0B480C490C4A002347
:1028900002E0D458C4500433C4188C42F9D3094A16
:1028A000094C002301E013600432A242FBD302F082
:1028B000DBFCFEF76FFE704700000020F4010020F3
:1028C000EC9E0008F401002020040020FEE7000038
:1028D00080B500AF084B1B68074A43F01003136034
:1028E000032000F047F90F2000F008F8FFF7A4FEDE
:1028F0000023184680BD00BF0020024080B582B092
:1029000000AF7860124B1A68124B1B7819464FF4CF
:102910007A73B3FBF1F3B2FBF3F3184600F05FF9FF
:102920000346002B01D001230EE07B680F2B0AD851
:10293000002279684FF0FF3000F027F9064A7B68E3
:102940001360002300E0012318460837BD4680BD10
:1029500020000020280000202400002080B400AFC8
:10296000054B1B781A46054B1B681344034A13603A
:1029700000BFBD4680BC704728000020D002002068
:1029800080B400AF024B1B681846BD4680BC704740
:10299000D002002080B584B000AF7860FFF7F0FF70
:1029A000B8607B68FB60FB68B3F1FF3F05D00A4B62
:1029B0001B781A46FB681344FB6000BFFFF7E0FF7B
:1029C0000246BB68D31AFA689A42F7D800BF00BF24
:1029D0001037BD4680BD00BF2800002080B485B000
:1029E00000AF78607B6803F00703FB600C4BDB688B
:1029F000BB60BA684FF6FF031340BB60FB681A0266
:102A0000BB68134343F0BF6343F40033BB60044A25
:102A1000BB68D36000BF1437BD4680BC704700BFA1
:102A200000ED00E080B400AF044BDB681B0A03F04C
:102A300007031846BD4680BC704700BF00ED00E0AC
:102A400080B483B000AF0346FB7197F90730002BC9
:102A50000BDBFB7903F01F02064997F907305B098E
:102A6000012000FA02F241F8232000BF0C37BD46D6
:102A700080BC704700E100E080B483B000AF034643
:102A80003960FB7197F90730002B0ADB3B68DAB23B
:102A90000C4997F907301201D2B20B4483F8002396
:102AA0000AE03B68DAB20849FB7903F00F03043B04
:102AB0001201D2B20B441A7600BF0C37BD4680BC5F
:102AC000704700BF00E100E000ED00E080B489B095
:102AD00000AFF860B9607A60FB6803F00703FB6140
:102AE000FB69C3F10703042B28BF0423BB61FB6907
:102AF0000433062B02D9FB69033B00E000237B6112
:102B00004FF0FF32BB6902FA03F3DA43BB681A40A5
:102B10007B699A404FF0FF317B6901FA03F3D94397
:102B20007B680B40134318462437BD4680BC704772
:102B300080B582B000AF78607B68013BB3F1807FE5
:102B400001D301230FE00A4A7B68013B53600F2148
:102B50004FF0FF30FFF790FF054B00229A60044BC7
:102B600007221A60002318460837BD4680BD00BF03
:102B700010E000E080B582B000AF78607868FFF7C1
:102B80002DFF00BF0837BD4680BD80B586B000AFC1
:102B90000346B9607A60FB7300237B61FFF742FF55
:102BA00078617A68B9687869FFF790FF024697F90B
:102BB0000F3011461846FFF75FFF00BF1837BD46BC
:102BC00080BD80B582B000AF0346FB7197F9073036
:102BD0001846FFF735FF00BF0837BD4680BD80B5FA
:102BE00082B000AF78607868FFF7A2FF034618460E
:102BF0000837BD4680BD000080B48BB000AF786060
:102C0000396000237B6200233B6269E101227B6A19
:102C100002FA03F3FB613B681B68FA691340BB616E
:102C2000BA69FB699A4240F058813B685B689A4AEE
:102C300093425ED0984A934275D8984A934258D0AE
:102C4000964A93426FD8964A934252D0944A9342FE
:102C500069D8944A93424CD0924A934263D8924A9C
:102C6000934246D0904A93425DD8122B2AD8122B19
:102C700059D801A252F823F0F32C0008CD2C0008FB
:102C8000DF2C0008212D0008272D0008272D000823
:102C9000272D0008272D0008272D0008272D0008C4
:102CA000272D0008272D0008272D0008272D0008B4
:102CB000272D0008272D0008272D0008D52C0008F7
:102CC000E92C0008794A934213D02CE03B68DB687A
:102CD0003B6229E03B68DB6804333B6224E03B68ED
:102CE000DB6808333B621FE03B68DB680C333B6208
:102CF0001AE03B689B68002B02D104233B6213E07F
:102D00003B689B68012B05D108233B627B68FA690D
:102D10001A6109E008233B627B68FA695A6103E0A3
:102D200000233B6200E000BFBB69FF2B01D87B683A
:102D300001E07B6804337B61BB69FF2B02D87B6AAF
:102D40009B0002E07B6A083B9B003B617B691A6841
:102D50000F213B6901FA03F3DB431A40396A3B69EF
:102D600001FA03F31A437B691A603B685B6803F05E
:102D70008053002B00F0B1804D4B9B694C4A43F0CF
:102D8000010393614A4B9B6903F00103BB60BB687D
:102D9000484A7B6A9B08023352F82330FB607B6A07
:102DA00003F003039B000F2202FA03F3DB43FA68EC
:102DB0001340FB607B68404A934213D07B683F4AD4
:102DC00093420DD07B683E4A934207D07B683D4AD0
:102DD000934201D1032306E0042304E0022302E02E
:102DE000012300E000237A6A02F00302920093407C
:102DF000FA681343FB602F497B6A9B080233FA6829
:102E000041F823203B685B6803F48013002B06D055
:102E10002D4B9A682C49BB6913438B6006E02A4B03
:102E20009A68BB69DB43284913408B603B685B6849
:102E300003F40013002B06D0234BDA682249BB6948
:102E40001343CB6006E0204BDA68BB69DB431E49C5
:102E50001340CB603B685B6803F40033002B06D063
:102E6000194B5A681849BB6913434B6006E0164B6F
:102E70005A68BB69DB43144913404B603B685B688D
:102E800003F48033002B21D00F4B1A680E49BB6925
:102E900013430B6021E000BF00003210000031102E
:102EA000000022100000211000001210000011107C
:102EB000001002400000014000080140000C0140E9
:102EC0000010014000140140000401400B4B1A683F
:102ED000BB69DB43094913400B607B6A01337B62AA
:102EE0003B681A687B6A22FA03F3002B7FF48EAEEC
:102EF00000BF00BF2C37BD4680BC704700040140B6
:102F000080B485B000AF78600B467B807B689A68A0
:102F10007B881340002B02D00123FB7301E00023C8
:102F2000FB73FB7B18461437BD4680BC704780B4EA
:102F300083B000AF78600B467B8013467B707B7854
:102F4000002B03D07A887B681A6103E07B881A041F
:102F50007B681A6100BF0C37BD4680BC704700001B
:102F600080B586B000AF78607B68002B01D101236B
:102F700072E27B681B6803F00103002B00F087807E
:102F8000924B5B6803F00C03042B0CD08F4B5B68F7
:102F900003F00C03082B12D18C4B5B6803F48033D5
:102FA000B3F5803F0BD1894B1B6803F40033002B32
:102FB0006CD07B685B68002B68D101234CE27B6896
:102FC0005B68B3F5803F06D1804B1B687F4A43F4B2
:102FD000803313602EE07B685B68002B0CD17B4B49
:102FE0001B687A4A23F480331360784B1B68774A56
:102FF00023F4802313601DE07B685B68B3F5A02F8A
:103000000CD1724B1B68714A43F4802313606F4BE1
:103010001B686E4A43F4803313600BE06B4B1B68F4
:103020006A4A23F480331360684B1B68674A23F4B1
:10303000802313607B685B68002B13D0FFF7A0FC34
:10304000386108E0FFF79CFC02463B69D31A642B09
:1030500001D9032300E25D4B1B6803F40033002B0E
:10306000F0D014E0FFF78CFC386108E0FFF788FC33
:1030700002463B69D31A642B01D90323ECE1534B7D
:103080001B6803F40033002BF0D100E000BF7B6825
:103090001B6803F00203002B63D04C4B5B6803F00A
:1030A0000C03002B0BD0494B5B6803F00C03082B7F
:1030B0001CD1464B5B6803F48033002B16D1434B85
:1030C0001B6803F00203002B05D07B681B69012BF2
:1030D00001D00123C0E13D4B1B6823F0F8027B685F
:1030E0005B69DB00394913430B603AE07B681B697D
:1030F000002B20D0364B01221A60FFF741FC3861CB
:1031000008E0FFF73DFC02463B69D31A022B01D9C8
:103110000323A1E12D4B1B6803F00203002BF0D029
:103120002A4B1B6823F0F8027B685B69DB002749A8
:1031300013430B6015E0264B00221A60FFF720FCBA
:10314000386108E0FFF71CFC02463B69D31A022BEA
:1031500001D9032380E11D4B1B6803F00203002B00
:10316000F0D17B681B6803F00803002B3AD07B6822
:103170009B69002B19D0174B01221A60FFF700FC46
:10318000386108E0FFF7FCFB02463B69D31A022BCB
:1031900001D9032360E10D4B5B6A03F00203002BAE
:1031A000F0D0012000F09CFA1CE00A4B00221A60CB
:1031B000FFF7E6FB38610FE0FFF7E2FB02463B69F1
:1031C000D31A022B08D9032346E100BF00100240A6
:1031D0000000424280044242924B5B6A03F00203C9
:1031E000002BE9D17B681B6803F00403002B00F07F
:1031F000A6800023FB758B4BDB6903F08053002B0B
:103200000DD1884BDB69874A43F08053D361854BEE
:10321000DB6903F08053BB60BB680123FB75824B05
:103220001B6803F48073002B18D17F4B1B687E4A08
:1032300043F480731360FFF7A3FB386108E0FFF7E6
:103240009FFB02463B69D31A642B01D9032303E198
:10325000754B1B6803F48073002BF0D07B68DB6830
:10326000012B06D16F4B1B6A6E4A43F001031362B8
:103270002DE07B68DB68002B0CD16A4B1B6A694A26
:1032800023F001031362674B1B6A664A23F00403B1
:1032900013621CE07B68DB68052B0CD1614B1B6A59
:1032A000604A43F0040313625E4B1B6A5D4A43F0BD
:1032B000010313620BE05B4B1B6A5A4A23F00103C4
:1032C0001362584B1B6A574A23F0040313627B684E
:1032D000DB68002B15D0FFF753FB38610AE0FFF7DE
:1032E0004FFB02463B69D31A41F28832934201D91F
:1032F0000323B1E04B4B1B6A03F00203002BEED01B
:1033000014E0FFF73DFB38610AE0FFF739FB0246A6
:103310003B69D31A41F28832934201D903239BE0DF
:10332000404B1B6A03F00203002BEED1FB7D012B07
:1033300005D13C4BDB693B4A23F08053D3617B686A
:10334000DB69002B00F08780364B5B6803F00C03D1
:10335000082B61D07B68DB69022B46D1334B0022FE
:103360001A60FFF70DFB386108E0FFF709FB024622
:103370003B69D31A022B01D903236DE0294B1B684B
:1033800003F00073002BF0D17B681B6AB3F5803F1C
:1033900008D1244B5B6823F400327B689B68214989
:1033A00013434B601F4B5B6823F474127B68196AEC
:1033B0007B685B6A0B431B4913434B601B4B012229
:1033C0001A60FFF7DDFA386108E0FFF7D9FA024624
:1033D0003B69D31A022B01D903233DE0114B1B6833
:1033E00003F00073002BF0D035E0104B00221A6080
:1033F000FFF7C6FA386108E0FFF7C2FA02463B69F8
:10340000D31A022B01D9032326E0064B1B6803F0D5
:103410000073002BF0D11EE07B68DB69012B07D124
:10342000012319E000100240007000406000424299
:103430000B4B5B68FB60FB6803F480327B681B6AA4
:103440009A4206D1FB6803F470127B685B6A9A4269
:1034500001D0012300E0002318461837BD4680BD87
:103460000010024080B584B000AF786039607B689E
:10347000002B01D10123D0E06A4B1B6803F0070346
:103480003A689A4210D9674B1B6823F007026549D6
:103490003B6813430B60634B1B6803F007033A68F8
:1034A0009A4201D00123B8E07B681B6803F0020355
:1034B000002B20D07B681B6803F00403002B05D091
:1034C000594B5B68584A43F4E06353607B681B6860
:1034D00003F00803002B05D0534B5B68524A43F4BA
:1034E00060535360504B5B6823F0F0027B689B682D
:1034F0004D4913434B607B681B6803F00103002BAD
:1035000040D07B685B68012B07D1474B1B6803F4F5
:103510000033002B15D101237FE07B685B68022B11
:1035200007D1414B1B6803F00073002B09D1012325
:1035300073E03D4B1B6803F00203002B01D1012314
:103540006BE0394B5B6823F003027B685B683649AC
:1035500013434B60FFF714FAF8600AE0FFF710FA24
:103560000246FB68D31A41F28832934201D9032301
:1035700053E02D4B5B6803F00C027B685B689B009B
:103580009A42EBD1274B1B6803F007033A689A4233
:1035900010D2244B1B6823F0070222493B681343D7
:1035A0000B60204B1B6803F007033A689A4201D076
:1035B000012332E07B681B6803F00403002B08D072
:1035C000194B5B6823F4E0627B68DB6816491343A0
:1035D0004B607B681B6803F00803002B09D0124B7B
:1035E0005B6823F460527B681B69DB000E49134360
:1035F0004B6000F021F802460B4B5B681B0903F09F
:103600000F030A49CB5C22FA03F3094A1360094B02
:103610001B681846FFF772F9002318461037BD469D
:1036200080BD00BF0020024000100240489B0008FF
:10363000200000202400002080B487B000AF0023C9
:10364000FB600023BB6000237B6100237B600023C1
:103650003B611E4B5B68FB60FB6803F00C03042BB3
:1036600002D0082B03D027E0194B3B6127E0FB6811
:103670009B0C03F00F03174AD35C7B60FB6803F4D9
:103680008033002B10D0114B5B685B0C03F00103FF
:10369000114AD35CBB607B680D4A03FB02F2BB6836
:1036A000B2FBF3F37B6104E07B680C4A02FB03F39B
:1036B0007B617B693B6102E0054B3B6100BF3B697D
:1036C00018461C37BD4680BC704700BF0010024042
:1036D00000127A00589B0008689B000800093D0012
:1036E00080B485B000AF78600A4B1B680A4AA2FB21
:1036F00003235B0A7A6802FB03F3FB6000BFFB68ED
:103700005A1EFA60002BF9D100BF00BF1437BD4626
:1037100080BC704720000020D34D621080B582B07D
:1037200000AF78607B68002B01D1012376E07B68D5
:103730005B6A002B08D17B685B68B3F5827F09D098
:103740007B680022DA6105E07B6800221A617B68F1
:1037500000225A617B6800229A627B6893F851309C
:10376000DBB2002B06D17B68002283F850207868FA
:10377000FEF7E6FC7B68022283F851207B681B6819
:103780001A687B681B6822F040021A607B685B68DD
:1037900003F482727B689B6803F404431A437B68DA
:1037A000DB6803F400631A437B681B6903F00203C0
:1037B0001A437B685B6903F001031A437B689B69CA
:1037C00003F400731A437B68DB6903F038031A4380
:1037D0007B681B6A03F0800342EA03017B689B6AF3
:1037E00003F400527B681B680A431A607B689B697C
:1037F0001A0C7B681B6802F004025A607B681B6825
:10380000DA697B681B6822F40062DA617B68002257
:103810005A657B68012283F8512000231846083737
:10382000BD4680BD80B588B000AFF860B9603B6030
:103830001346FB80FFF7A4F8F861FB887B83FB68E5
:1038400093F85130DBB2012B01D002232AE1BB688F
:10385000002B02D0FB88002B01D1012322E1FB6861
:1038600093F85030012B01D102231BE1FB680122A8
:1038700083F85020FB68032283F85120FB68002264
:103880005A65FB68BA681A63FB68FA889A86FB680F
:10389000FA88DA86FB6800229A63FB6800229A871E
:1038A000FB680022DA87FB6800225A64FB6800226A
:1038B0001A64FB689B68B3F5004F0FD1FB681B6867
:1038C0001A68FB681B6822F040021A60FB681B68DC
:1038D0001A68FB681B6842F480421A60FB681B6828
:1038E0001B6803F04003402B07D0FB681B681A6875
:1038F000FB681B6842F040021A60FB68DB68B3F5A6
:10390000006F52D1FB685B68002B02D07B8B012BD0
:1039100045D1FB681B6B1A88FB681B68DA60FB6883
:103920001B6B9A1CFB681A63FB68DB8E9BB2013B26
:103930009AB2FB68DA8632E0FB681B689B6803F08A
:103940000203022B12D1FB681B6B1A88FB681B68F1
:10395000DA60FB681B6B9A1CFB681A63FB68DB8EE2
:103960009BB2013B9AB2FB68DA8618E0FFF708F8D1
:103970000246FB69D31A3A689A4203D83B68B3F10E
:10398000FF3F02D13B68002B09D1FB68012283F87D
:103990005120FB68002283F85020032382E0FB685B
:1039A000DB8E9BB2002BC7D153E0FB685B68002B1A
:1039B00002D07B8B012B47D1FB681A6BFB681B681D
:1039C0000C3312781A70FB681B6B5A1CFB681A6365
:1039D000FB68DB8E9BB2013B9AB2FB68DA8633E070
:1039E000FB681B689B6803F00203022B13D1FB6882
:1039F0001A6BFB681B680C3312781A70FB681B6B20
:103A00005A1CFB681A63FB68DB8E9BB2013B9AB2BF
:103A1000FB68DA8618E0FEF7B3FF0246FB69D31AAB
:103A20003A689A4203D83B68B3F1FF3F02D13B6842
:103A3000002B09D1FB68012283F85120FB6800228A
:103A400083F8502003232DE0FB68DB8E9BB2002B14
:103A5000C6D1FA693968F86800F0B0F80346002B5F
:103A600002D0FB6820225A65FB689B68002B0AD1B4
:103A700000237B61FB681B68DB687B61FB681B685C
:103A80009B687B617B69FB68012283F85120FB689E
:103A9000002283F85020FB685B6D002B01D00123CE
:103AA00000E0002318462037BD4680BD80B588B0B1
:103AB00000AFF860B9603B601346FB71FEF760FF32
:103AC0000246BB6A9B1A3A681344FB61FEF758FF33
:103AD000B861394B1B685B011B0DFA6902FB03F3EC
:103AE0007B6154E03B68B3F1FF3F50D0FEF748FFE5
:103AF0000246BB69D31AFA699A4202D9FB69002BC4
:103B00003DD1FB681B685A68FB681B6822F0E00225
:103B10005A60FB685B68B3F5827F11D1FB689B68D4
:103B2000B3F5004F04D0FB689B68B3F5806F07D1F5
:103B3000FB681B681A68FB681B6822F040021A6069
:103B4000FB689B6AB3F5005F0FD1FB681B681A68BE
:103B5000FB681B6822F400521A60FB681B681A6835
:103B6000FB681B6842F400521A60FB68012283F86C
:103B70005120FB68002283F85020032317E07B6963
:103B8000002B01D10023FB617B69013B7B61FB685A
:103B90001B689A68BB681340BA689A420CBF01233D
:103BA0000023DBB21A46FB799A429BD100231846C8
:103BB0002037BD4680BD00BF2000002080B586B004
:103BC00002AFF860B9607A607B680093BB6801223D
:103BD0000221F868FFF76AFF0346002B07D0FB6855
:103BE0005B6D43F02002FB685A65032313E07B689A
:103BF0000093BB6800228021F868FFF757FF034657
:103C0000002B07D0FB685B6D43F02002FB685A6510
:103C1000032300E0002318461037BD4680BD000096
:103C200080B485B000AF78607B6893F83D30DBB23C
:103C3000012B01D0012332E07B68022283F83D2072
:103C40007B681B68184A93420ED07B681B68B3F1EF
:103C5000804F09D07B681B68144A934204D07B686C
:103C60001B68134A934211D17B681B689B6803F061
:103C70000703FB60FB68062B10D07B681B681A6883
:103C80007B681B6842F001021A6007E07B681B68D2
:103C90001A687B681B6842F001021A60002318460C
:103CA0001437BD4680BC7047002C01400004004022
:103CB0000008004080B582B000AF78607B68002BC0
:103CC00001D1012341E07B6893F83D30DBB2002B4A
:103CD00006D17B68002283F83C20786800F039F830
:103CE0007B68022283F83D207B681A687B68043376
:103CF0001946104600F0FEF97B68012283F8462041
:103D00007B68012283F83E207B68012283F83F20F4
:103D10007B68012283F840207B68012283F84120E0
:103D20007B68012283F842207B68012283F84320CC
:103D30007B68012283F844207B68012283F84520B8
:103D40007B68012283F83D20002318460837BD46D2
:103D500080BD80B483B000AF786000BF0C37BD4633
:103D600080BC704780B584B000AF786039603B6834
:103D7000002B09D17B6893F83E30DBB2012B14BFD6
:103D800001230023DBB222E03B68042B09D17B68CE
:103D900093F83F30DBB2012B14BF01230023DBB2C9
:103DA00015E03B68082B09D17B6893F84030DBB203
:103DB000012B14BF01230023DBB208E07B6893F8DA
:103DC0004130DBB2012B14BF01230023DBB2002BF7
:103DD00001D001235EE03B68002B04D17B68022206
:103DE00083F83E2013E03B68042B04D17B68022259
:103DF00083F83F200BE03B68082B04D17B6802224C
:103E000083F8402003E07B68022283F841207B682E
:103E10001B6801223968184600F062FB7B681B684A
:103E20001E4A934207D17B681B685A6C7B681B68EB
:103E300042F400425A647B681B68184A93420ED0D1
:103E40007B681B68B3F1804F09D07B681B68144AFC
:103E5000934204D07B681B68124A934211D17B685D
:103E60001B689B6803F00703FB60FB68062B10D000
:103E70007B681B681A687B681B6842F001021A6045
:103E800007E07B681B681A687B681B6842F00102C8
:103E90001A60002318461037BD4680BD002C014033
:103EA000000400400008004080B582B000AF786098
:103EB00039607B681B6800223968184600F010FBE7
:103EC0007B681B68294A934217D17B681B681A6A72
:103ED00041F211131340002B0FD17B681B681A6A43
:103EE00040F244431340002B07D17B681B685A6C97
:103EF0007B681B6822F400425A647B681B681A6A5C
:103F000041F211131340002B0FD17B681B681A6A12
:103F100040F244431340002B07D17B681B681A68AA
:103F20007B681B6822F001021A603B68002B04D1F9
:103F30007B68012283F83E2013E03B68042B04D108
:103F40007B68012283F83F200BE03B68082B04D1FB
:103F50007B68012283F8402003E07B68012283F81C
:103F60004120002318460837BD4680BD002C014083
:103F700080B586B000AFF860B9607A600023FB7549
:103F8000FB6893F83C30012B01D10223AEE0FB68C3
:103F9000012283F83C207B680C2B00F29F8001A259
:103FA00052F823F0D93F0008DD400008DD4000084A
:103FB000DD40000819400008DD400008DD40000831
:103FC000DD4000085B400008DD400008DD400008DF
:103FD000DD4000089B400008FB681B68B968184674
:103FE00000F0F6F8FB681B689A69FB681B6842F0F2
:103FF00008029A61FB681B689A69FB681B6822F0DB
:1040000004029A61FB681B689969BB681A69FB68BE
:104010001B680A439A6164E0FB681B68B96818462C
:1040200000F03CF9FB681B689A69FB681B6842F466
:1040300000629A61FB681B689A69FB681B6822F43E
:1040400080629A61FB681B689969BB681B691A02E8
:10405000FB681B680A439A6143E0FB681B68B96808
:10406000184600F085F9FB681B68DA69FB681B6875
:1040700042F00802DA61FB681B68DA69FB681B68BA
:1040800022F00402DA61FB681B68D969BB681A690F
:10409000FB681B680A43DA6123E0FB681B68B968A8
:1040A000184600F0CFF9FB681B68DA69FB681B68EB
:1040B00042F40062DA61FB681B68DA69FB681B681E
:1040C00022F48062DA61FB681B68D969BB681B69EE
:1040D0001A02FB681B680A43DA6102E00123FB75E0
:1040E00000BFFB68002283F83C20FB7D1846183790
:1040F000BD4680BD80B485B000AF786039607B6814
:104100001B68FB607B682F4A93420BD07B68B3F13E
:10411000804F07D07B682C4A934203D07B682B4AA0
:10412000934208D1FB6823F07003FB603B685B6837
:10413000FA681343FB607B68224A93420BD07B688A
:10414000B3F1804F07D07B681F4A934203D07B684E
:104150001E4A934208D1FB6823F44073FB603B681E
:10416000DB68FA681343FB60FB6823F080023B685E
:104170005B691343FB607B68FA681A603B689A6866
:104180007B68DA623B681A687B689A627B680D4AD2
:10419000934203D13B681A697B681A637B680122EA
:1041A0005A617B681B6903F00103002B05D07B6813
:1041B0001B6923F001027B681A6100BF1437BD46FA
:1041C00080BC7047002C0140000400400008004003
:1041D00080B487B000AF786039607B681B6A7B6110
:1041E0007B681B6A23F001027B681A627B685B684C
:1041F0003B617B689B69FB60FB6823F07003FB609D
:10420000FB6823F00303FB603B681B68FA681343F9
:10421000FB607B6923F002037B613B689B687A69E2
:1042200013437B617B681C4A93420CD17B6923F06A
:1042300008037B613B68DB687A6913437B617B69B8
:1042400023F004037B617B68134A934211D13B69DD
:1042500023F480733B613B6923F400733B613B684B
:104260005B693A6913433B613B689B693A69134355
:104270003B617B683A695A607B68FA689A613B687F
:104280005A687B685A637B687A691A6200BF1C3778
:10429000BD4680BC704700BF002C014080B487B091
:1042A00000AF786039607B681B6A7B617B681B6A42
:1042B00023F010027B681A627B685B683B617B6855
:1042C0009B69FB60FB6823F4E043FB60FB6823F41D
:1042D0004073FB603B681B681B02FA681343FB607A
:1042E0007B6923F020037B613B689B681B017A6933
:1042F00013437B617B681D4A93420DD17B6923F098
:1043000080037B613B68DB681B017A6913437B6137
:104310007B6923F040037B617B68144A934213D18D
:104320003B6923F480633B613B6923F400633B6199
:104330003B685B699B003A6913433B613B689B693F
:104340009B003A6913433B617B683A695A607B681A
:10435000FA689A613B685A687B689A637B687A69F5
:104360001A6200BF1C37BD4680BC7047002C01405C
:1043700080B487B000AF786039607B681B6A7B616E
:104380007B681B6A23F480727B681A627B685B68B7
:104390003B617B68DB69FB60FB6823F07003FB60BB
:1043A000FB6823F00303FB603B681B68FA68134358
:1043B000FB607B6923F400737B613B689B681B0295
:1043C0007A6913437B617B681D4A93420DD17B69F7
:1043D00023F400637B613B68DB681B027A6913434B
:1043E0007B617B6923F480637B617B68144A934221
:1043F00013D13B6923F480533B613B6923F40053A1
:104400003B613B685B691B013A6913433B613B6855
:104410009B691B013A6913433B617B683A695A60A7
:104420007B68FA68DA613B685A687B68DA637B68A4
:104430007A691A6200BF1C37BD4680BC704700BF56
:10444000002C014080B487B000AF786039607B6891
:104450001B6A3B617B681B6A23F480527B681A628B
:104460007B685B687B617B68DB69FB60FB6823F4CE
:10447000E043FB60FB6823F44073FB603B681B6810
:104480001B02FA681343FB603B6923F400533B6152
:104490003B689B681B033A6913433B617B680F4A87
:1044A000934209D17B6923F480437B613B685B695C
:1044B0009B017A6913437B617B687A695A607B68E8
:1044C000FA68DA613B685A687B681A647B683A6903
:1044D0001A6200BF1C37BD4680BC7047002C0140EB
:1044E00080B487B000AFF860B9607A60BB6803F051
:1044F0001F03012202FA03F37B61FB681A6A7B69DE
:10450000DB431A40FB681A62FB681A6ABB6803F057
:104510001F03796801FA03F31A43FB681A6200BFAC
:104520001C37BD4680BC7047024B0146186800F03E
:1045300025B800BF3800002070B50F4E0C4631681A
:10454000054611B900F068FE30602146284600F0AB
:1045500063FE431C03D14FF0FF34204670BDC41CE2
:1045600024F00304A042F8D0211A284600F054FE9B
:104570000130F2D1EFE700BFD40200202DE9F8436B
:10458000CD1C25F0030508350C2D38BF0C25002D5A
:10459000064601DBA94204D90C2333600020BDE8A4
:1045A000F883DFF8D48000F069F8D8F800301C46B2
:1045B00044BB29463046FFF7BFFF431C044658D191
:1045C000D8F800402746002F43D1002C4BD0236859
:1045D0003946304604EB030900F01EFE814542D106
:1045E000216830466D1A2946FFF7A6FF01303AD000
:1045F00023682B442360D8F800305A6862BBC8F89F
:1046000000700FE02268521B20D40B2A17D96119C1
:10461000A342256018BF5960636808BFC8F800103E
:1046200062514B60304600F02FF804F10B00231D5F
:1046300020F00700C21A1CBF1B1AA350AFE7626824
:10464000A3420CBFC8F800205A60EBE72346646819
:10465000AEE73C467F68B6E71A465B68A342FBD1EB
:1046600000235360DEE70C233046336000F00CF883
:1046700094E70560D6E700BFD8020020014800F0AB
:1046800018BE00BF1C040020014800F013BE00BF8C
:104690001C040020002B2DE9F0471D46BBBF03F191
:1046A00000431D4600232D2388B01446B8BF14468E
:1046B000129A109E1370149BDDF84CA023F0200872
:1046C000B8F1460F05D0B8F1450F00D101360223ED
:1046D00000E0032307AA049206AACDE902A2CDE9CD
:1046E000003622462B4600F07FFEB8F1470F074602
:1046F00019D1119BDB070ED500EB06090022002320
:1047000020462946FCF750F908B1CDF81C9030221C
:10471000079B4B451ED33846079B159ADB1B13603E
:1047200008B0BDE8F087B8F1460F00EB0609E5D107
:104730000378302B0AD10022002320462946FCF7BB
:1047400033F918B9C6F10106CAF80060DAF800308A
:104750009944D3E7591C07911A70D9E7F7B5002996
:10476000B6BF2D232B23494209290270437029DD4E
:104770000DF107031D460A27B1FBF7F61A4607FBA2
:104780001614303402F8014C0C46632C314603F108
:10479000FF33F1DC3031941E03F8011C2346411C29
:1047A000AB420AD30DF109039B1AAC4288BF002328
:1047B00002330344181A03B0F0BD13F8016B01F87B
:1047C000016FEDE7302330318370C170031DF1E7D5
:1047D0002DE9F04F91B00C46DDF8688016461F4673
:1047E000054600F0E1FC036818460893FBF7B0FCAF
:1047F00000230E93D8F800300990073323F0070305
:1048000003F1080294F818A0D4F800B0C8F800200A
:10481000D3E9008929F000430B93CDF828804FF0AD
:10482000FF32DDE90A01C4E912899C4BFCF7EEF87E
:1048300070BBDDE90A014FF0FF32984BFCF7C8F876
:1048400030BB0022002340464946FCF7B7F810B1C0
:104850002D2384F84330924A924BBAF1470F8CBF14
:104860009046984603234FF0000923612BF0040380
:10487000236033462146284600970FAA00F0D4F95A
:10488000013040F090804FF0FF3011B0BDE8F08F64
:1048900042464B4640464946FCF7B8F848B14B46BD
:1048A000002BB8BF2D23804AB8BF84F843307F4B1C
:1048B000D3E763680AF0DF015A1C3FD10623636027
:1048C00000224BF48063236006920EAACDE904A275
:1048D0000DAA03920DF13302CDE90132636842461D
:1048E000009328464B460A91FFF7D4FE0A9980466A
:1048F00047290D9928D1C81C02DB6368994240DD25
:10490000AAF1020A5FFA8AFA5246013904F150000C
:104910000D91FFF723FF0E9A81461318012A236198
:1049200002DC2268D20701D5013323619DF83330C0
:10493000002B9ED02D2384F843309AE74729BFD11E
:10494000002BBDD10123BAE7BAF1650FDCD9BAF16A
:10495000660F18D1002963680BDD216113B9226845
:10496000D00702D501330B4423614FF00009A16544
:10497000DCE713B92268D20701D50233F4E701233B
:10498000F2E74FF0670A0E9B994205DB236821612D
:10499000D807EAD54B1CE7E70029CCBF0122C1F1BB
:1049A00002021344E0E723685A0507D4236942460C
:1049B00031462846B84701302BD164E7BAF1650F7C
:1049C00040F2DC80D4E9120100220023FBF7ECFF67
:1049D000002833D0012331462846354AB8470130F4
:1049E0003FF451AFDDE90D38434502DB2368D807BA
:1049F0000FD5DDE9082331462846B84701303FF49A
:104A000042AF4FF0000908F1FF3804F11A0AC84517
:104A100009DC23689B0700F10281E0680F9B984244
:104A2000B8BF184631E70123524631462846B847F9
:104A300001303FF428AF09F10109E8E70D9B002B95
:104A400038DC012331462846194AB84701303FF483
:104A50001AAFDDE90D3959EA030302D12368D907FA
:104A6000D7D5DDE9082331462846B84701303FF461
:104A70000AAF4FF0000A04F11A0B0D9B5B4253453D
:104A800001DC4B4693E701235A4631462846B84796
:104A900001303FF4F8AE0AF1010AEEE7FFFFEF7FC5
:104AA0006E9B00086A9B0008769B0008729B0008BA
:104AB0007A9B0008A36DDDF838A05345A8BF534684
:104AC000002B994636DC4FF0000B29EAE97904F116
:104AD0001A02A36D0A93A3EB09035B4531DC0D9B1E
:104AE0009A453ADC2368DA0737D40D9BAAEB030911
:104AF0000A9BAAEB03039945A8BF9946B9F1000F99
:104B000033DC4FF0000829EAE97904F11A0B0D9B18
:104B1000AAEB0303A3EB090343457FF77AAF012315
:104B20005A4631462846B84701303FF4ACAE08F14A
:104B30000108ECE7424631462846B8470130C2D169
:104B4000A1E60123314628460A92B84701303FF4D6
:104B50009AAE0A9A0BF1010BBBE73146DDE9082357
:104B60002846B8470130C0D18DE60A9A4B463146F7
:104B700028464244B8470130C3D184E6DDF838A066
:104B8000BAF1010F01DCDB0736D50123424631467D
:104B90002846B84701303FF476AEDDE908233146B8
:104BA0002846B84701303FF46EAED4E91201002226
:104BB00000230AF1FF3AFBF7F7FEC0B9534608F1AC
:104BC000010231462846B84701300CD15BE601238B
:104BD0005A4631462846B84701303FF454AE08F1F2
:104BE0000108D045F3DB4B4604F15002E0E64FF0FC
:104BF000000804F11A0BF4E701234246E1E7012320
:104C00004A4631462846B84701303FF43CAE08F1E9
:104C10000108E3680F995B1A4345F0DCFDE64FF0AD
:104C2000000804F11909F4E72DE9F0471646984603
:104C30008A680B6907469342B8BF1346336091F800
:104C400043200C46DDF820900AB10133336023681D
:104C5000990642BF336802333360256815F00605B4
:104C600006D104F1190AE36832689B1AAB422BDCC7
:104C700094F843302268003B18BF0123920630D4D9
:104C80004146384604F14302C847013023D0236827
:104C9000226903F00603042B14BF002533684FF08C
:104CA000000608BFE56804F11A0408BFED1A54F8BD
:104CB000123C08BF25EAE5759342C4BF9B1AED1864
:104CC000B5421AD1002008E0012352464146384639
:104CD000C847013003D14FF0FF30BDE8F087013500
:104CE000C1E73020E11881F843005A1C94F84510C0
:104CF0002244023382F84310C2E701232246414690
:104D00003846C8470130E6D00136D9E72DE9FF47DC
:104D10000F7E9146782F80460C469A460C9E01F1F4
:104D2000430207D8622F0AD8002F00F0D180582FF5
:104D300000F0B88004F1420684F842703AE0A7F12E
:104D40006303152BF6D801A151F823F0A54D0008F7
:104D5000B94D0008354D0008354D0008354D0008A7
:104D6000354D0008B94D0008354D0008354D000897
:104D7000354D0008354D0008B74E0008E34D0008DA
:104D8000714E0008354D0008354D0008D94E000819
:104D9000354D0008E34D0008354D0008354D00083D
:104DA000794E000833681A1D1B68326004F1420610
:104DB00084F8423001239CE033682068191D31607B
:104DC000060601D51D6803E04506FBD5B3F9005082
:104DD000002D03DA2D236D4284F843300A2358480E
:104DE00011E021683368080653F8045B02D44906D1
:104DF00048BFADB26F2F336014BF0A230823504859
:104E0000002184F843106668002EA66005DB216847
:104E10002E4321F0040121604BD01646B5FBF3F17F
:104E200003FB1157C75D06F8017D2F46BB420D46B7
:104E3000F4D9082B0BD12368DF0708D523696168F3
:104E40009942DEBF302306F8013C06F1FF36921B83
:104E500022614B4621464046CDF800A003AAFFF749
:104E6000E3FE01304AD14FF0FF3004B0BDE8F087D7
:104E7000236843F0200323607827324884F8457084
:104E8000236831681F0651F8045B02D45F0648BFEF
:104E9000ADB23160D90744BF43F0200323601DB198
:104EA0001023ADE72648E9E7236823F020032360B9
:104EB000F6E71646BDE733682568181D616930605E
:104EC0002E061B6801D5196002E06806FBD5198023
:104ED000002316462361BCE7336800211A1D3260A7
:104EE0001E686268304600F0E6F908B1801B606019
:104EF00063682361002384F84330AAE732464946B9
:104F000040462369D0470130ADD023689B0713D4B6
:104F1000E068039B9842B8BF1846A6E701233246D3
:104F200049464046D04701309DD00135E36803999A
:104F30005B1AAB42F2DCEBE7002504F11906F5E75A
:104F40007C9B00088D9B0008002310B50446C0E937
:104F50000033C0E90433836081814366C281836189
:104F6000194608225C3000F016F90D4B246263628A
:104F70000C4BA3620C4BE3620C4B23630C4B9C4227
:104F800006D003F16802944202D0D0339C4205D18E
:104F900004F15800BDE8104000F08AB910BD00BF10
:104FA00011510008335100086B5100088F5100085F
:104FB000DC020020024A0349034800F069B800BF40
:104FC0002C000020C56A00083C00002041680C4B02
:104FD00010B59942044601D001F074FDA168094B57
:104FE000994202D0204601F06DFDE168064B9942DE
:104FF00004D02046BDE8104001F064BD10BD00BFE4
:10500000DC02002044030020AC03002010B50B4B51
:105010000B4C0C4A20461A6004210022FFF794FF33
:1050200004F1680001220921FFF78EFF04F1D0008E
:105030000222BDE810401221FFF786BF14040020B1
:10504000DC020020B54F0008014800F032B900BF73
:105050001D040020014800F02DB900BF1D040020F0
:1050600010B50446FFF7F0FF236A1BB1BDE81040FE
:10507000FFF7F0BF044B2362044B1B68002BF5D1F4
:10508000FFF7C4FFF2E700BFCD4F00081404002073
:105090002DE9F8430746884614460026D4E90195D1
:1050A000B9F1010905D52468002CF7D13046BDE8D7
:1050B000F883AB89012B07D9B5F90E30013303D042
:1050C00029463846C04706436835E9E70EB46FF015
:1050D000004110B500249DB01FAB029006900791CF
:1050E00004910948094953F8042B0591006802A965
:1050F00001931B9401F06AFB029B1C701DB0BDE87C
:10510000104003B0704700BF380000200802FFFFC6
:1051100010B50C46B1F90E1000F06CF80028ABBFCA
:10512000636DA3891B1823F48053ACBF6365A3810F
:1051300010BD2DE9F0411F468B890546DB050C4665
:10514000164605D502230022B1F90E1000F040F8F2
:10515000A389324623F48053A38128463B46B4F901
:105160000E10BDE8F04100F067B810B50C46B1F97B
:105170000E1000F02DF8431CA38915BF606523F4C1
:10518000805343F48053A38118BFA38110BDB1F9AC
:105190000E1000F00DB803460244934200D1704750
:1051A00003F8011BF9E70000004870477801002070
:1051B00038B50023054D044608462B60FDF7F5FA87
:1051C000431C02D12B6803B1236038BD18040020B2
:1051D00038B50446084611460022054D2A601A4695
:1051E000FDF707FB431C02D12B6803B1236038BDD8
:1051F0001804002038B50446084611460022054D23
:105200002A601A46FDF798FA431C02D12B6803B1B5
:10521000236038BD1804002038B50023054D04462E
:1052200008462B60FDF7F2FA431C02D12B6803B14C
:10523000236038BD1804002038B5044608461146DE
:105240000022054D2A601A46FDF793FA431C02D14D
:105250002B6803B1236038BD18040020014B186887
:10526000704700BF3800002070B500260C4D0D4C73
:10527000641BA410A64209D101F0B0FF00260A4D1C
:105280000A4C641BA410A64205D170BD55F8043B1E
:1052900098470136EEE755F8043B98470136F2E7A8
:1052A000E49E0008E49E0008E49E0008E89E0008D2
:1052B000704770477047034610B5C9B20244934225
:1052C000184601D1002003E0047801338C42F6D166
:1052D00010BD2DE9F74F03690C690746A3427EDB39
:1052E000013CA30000F1140501F11408009305EB43
:1052F0008403019358F8243055F8242001339A424E
:10530000B2FBF3F608EB84092ED34FF0000AC44633
:10531000AE46D3465CF8043B98B206FB00A01B0CDB
:10532000020C06FB0323DEF8002080B292B2121AB0
:105330005A44DEF800004FEA134A9BB2C3EB224303
:1053400003EB104392B242EA0342E1454FEA234B9A
:105350004EF8042BDED2009BEB582BB9019B043B8B
:105360009D421A462FD33C61384601F0CBF8002805
:1053700025DB2946002058F8042BD1F800C01FFA7D
:1053800082FE1FFA8CF3A3EB0E030344120CC2EB54
:10539000234202EB1C429BB243EA0243C1454FEA5F
:1053A000224041F8043BE6D255F8242005EB840363
:1053B00022B9043B9D421A460BD33C61013630466C
:1053C00003B0BDE8F08F1268043B002ACBD1013C4A
:1053D000C6E71268043B002AEFD1013CEAE700204F
:1053E000EEE70000000000002DE9F04F14461D46D6
:1053F000C76997B08146CDE90645239E7FB9102045
:10540000FFF792F80246C9F81C0020B9EF21AC4B17
:10541000AC4801F0A7FBC0E901770760C760D9F885
:105420001C30196859B15A68012393404A608B6057
:10543000484600F035FE0022D9F81C301A602B1EB9
:10544000AFBF0023012223F000430793A8BF3360BE
:10545000DDF81C809C4BB8BF326033EA080312D1E0
:1054600042F20F73229A1360C8F31303234300F030
:105470005E85249BDFF854A2002B00F060850AF1C2
:10548000030300F05ABDDDE90623CDE90C23DDE975
:105490000C0100220023FBF787FA074658B10123CD
:1054A000229A1360249B13B1894B249A1360DFF86E
:1054B00024A200F044BD14AB019315AB0093484601
:1054C000DDE90C2301F0CEF8C8F30A560390002E54
:1054D00078D0DDE90C010D9BA6F2FF36C3F3130370
:1054E00043F07F5343F440131297194600227A4B3E
:1054F000FAF73AFE6CA3D3E90023FAF7EDFF6CA3A9
:10550000D3E90023FAF732FE044630460D46FAF797
:1055100079FF69A3D3E90023FAF7DEFF02460B46C1
:1055200020462946FAF722FE04460D46FBF784FA88
:1055300000220746002320462946FBF73FFA40B1E8
:105540003846FAF75FFF22462B46FBF72DFA00B9E3
:10555000013F162F54D8DDE90C01604B03EBC70364
:10556000D3E90023FBF72AFA00284BD00023013FA0
:105570000F93149B9B1B5A1E49BFC3F101030023C9
:1055800004930023099254BF04930993002F3BDB3B
:10559000099B0E973B44099300230A93209B092BF8
:1055A00065D8052BC4BF043B2093209BC8BF0024B3
:1055B000A3F10203D8BF0124032B64D8DFE803F072
:1055C0005355382CDDE914631E4406F23243202B78
:1055D000C1BFC3F1400308FA03F806F2124324FAEC
:1055E00003F3D6BFC3F1200348EA030004FA03F033
:1055F000FAF7F8FE0122A1F1F873013E129274E766
:105600000123B5E70F90B4E7049BDB1B04937B42B7
:105610000A9300230E93C1E701230B93219B07EB11
:10562000030B0BF10103012B0893B8BF012306E024
:1056300001230B93219B002B28DD9B46089300211F
:105640000422D9F81C0002F114059D4226D94160BC
:10565000484600F0E5FC8246002843D1024640F26D
:10566000AF111F4BD4E60023E3E70023D5E7012465
:1056700000230B9420934FF0FF3B00221223CDF820
:1056800020B02192DBE701230B93F4E74FF0010BED
:105690005B46CDF820B0CDF884B0D0E701315200A0
:1056A000D1E700BFAFF3008061436F63A787D23FAC
:1056B000B3C8608B288AC63FFB799F501344D33F01
:1056C000AB9B0008C29B00080000F07FA79B00086E
:1056D0007B9B00087A9B00080000F83F109D0008A3
:1056E0001A9C0008D9F81C301860089B0E2B00F299
:1056F000A180002C00F09E80002F33DD9C4B07F032
:105700000F0203EBC203F805D3E90034CDE91034EE
:105710004FEA271416D5DDE90C01964B0326D3E991
:105720000823FBF703F8CDE9060104F00F04914DBF
:1057300054B9DDE91023DDE90601FAF7F7FFCDE9F9
:10574000060128E00226F2E7E10708D5DDE91001AD
:10575000D5E90023FAF7C0FECDE910010136641047
:105760000835E5E700F0AF80DDE90C017C42804BB5
:1057700004F00F0203EBC203D3E90023FAF7ACFEF7
:1057800002260023CDE906017A4D2411002C40F0B9
:105790008F80002BD3D1DDE906450F9B002B00F055
:1057A0009480002220462946734BFBF707F9002816
:1057B00000F08B80089B002B00F08780BBF1000F6E
:1057C00034DD2046002229466C4BFAF785FE5C4604
:1057D000CDE9060107F1FF3801363046FAF712FE2F
:1057E000DDE90623FAF778FE0022654BFAF7BEFCE6
:1057F0000546A1F15076002C6AD1DDE906010022B0
:10580000604BFAF7B1FC02460B46CDE906232A4667
:105810003346FBF7F1F8002840F09882DDE90601F5
:105820002A4606F10043FBF7C9F838BBDDE90C3422
:10583000CDE90634159B002BC0F257810E2F00F3E3
:1058400054814B4B03EBC703D3E90034CDE9043457
:10585000219B002B80F2E580089B002B00F3E18068
:105860000CD1DDE904010022464BFAF735FEDDE9F3
:105870000623FBF7B7F8002800F0668200242546CF
:10588000219B56466FEA030800272146484600F050
:1058900007FC002D00F0BD802FB1AF4203D0394688
:1058A000484600F0FDFB2946484600F0F9FBB0E011
:1058B000E20705D5D5E90023FAF70EFE01230136EC
:1058C0006410083562E7022665E7B846089C84E75D
:1058D000274B0B9903EBC40353E9022354440029DB
:1058E00054D000202849FAF721FF33462A46FAF718
:1058F0003BFC5646CDE91001DDE90601FBF79CF8BB
:105900000546FAF77FFD02460B46DDE90601FAF788
:105910002BFC02460B463035CDE90623DDE910238A
:1059200006F8015BFBF74AF8002872D1DDE906238F
:1059300000201149FAF718FCDDE91023FBF73EF8C7
:10594000002840F0B480A6423FF470AFDDE91001BA
:1059500000220A4BFAF7C0FD0022CDE91001DDE973
:105960000601064BFAF7B8FDCDE90601C4E700BF12
:10597000109D0008E89C00080000F03F0000244053
:1059800000001C40000014400000E03F3146284663
:10599000FAF7A2FD5646CDE910011394DDE90601A0
:1059A000FBF74AF80546FAF72DFD02460B46DDE9FE
:1059B0000601FAF7D9FB02460B46303506F8015BC3
:1059C000A642CDE906234FF0000224D1DDE9100103
:1059D000AE4BFAF7CBFB02460B46DDE90601FBF7BF
:1059E0000BF8002863D1DDE910230020A749FAF75E
:1059F000BBFB02460B46DDE90601FAF7DFFF002894
:105A00003FF414AF139E731E139316F8013C302B12
:105A1000F8D047463BE09E4BFAF75EFDCDE9060124
:105A2000BCE75646DDE90645DDE904232046294664
:105A3000FAF77CFEFBF700F88046FAF7E3FCDDE9B5
:105A40000423FAF749FD02460B4620462946FAF799
:105A50008BFB08F13004089D06F8014BA6EB0A0405
:105A6000A54202460B4633D1FAF780FBDDE9042359
:105A700004460D46FAF7C0FFC0B9DDE9042320460D
:105A80002946FAF791FF10B118F0010F0ED14846E0
:105A9000039900F005FB00233370229B01371F6040
:105AA000249B002B00F04B821E6048E2B846334630
:105AB0001E4613F8012D392A06D19A45F8D1302215
:105AC00008F101088AF800201A7801321A70A0E75C
:105AD00000226F4BFAF700FD0022002304460D461A
